:020000040800F2
:10000000C80B002039020008154E0008E909000855
:10001000114E00086906000837540008000000006F
:10002000000000000000000000000000F14F000888
:10003000F707000800000000A54E0008095100085D
:10004000530200085302000853020008530200083C
:10005000530200085302000853020008530200082C
:10006000530200085302000853020008530200081C
:10007000530200085302000853020008530200080C
:1000800053020008530200085302000853020008FC
:1000900053020008530200085302000853020008EC
:1000A00053020008530200085302000853020008DC
:1000B00053020008530200085302000853020008CC
:1000C00053020008530200085302000853020008BC
:1000D0005302000853020008B551000853020008FB
:1000E000530200085302000853020008530200089C
:1000F000530200085302000853020008530200088C
:10010000530200085302000875510008530200080A
:10011000530200085302000853020008530200086B
:10012000530200085302000853020008530200085B
:10013000530200085302000853020008530200084B
:10014000530200085302000853020008530200083B
:10015000530200085302000853020008E55100084A
:10016000530200085302000853020008530200081B
:1001700053020008530200088507000853020008D4
:10018000530200085302000800F002F800F044F89F
:100190000AA090E8000C82448344AAF10107DA45E2
:1001A00001D100F039F8AFF2090EBAE80F0013F0F0
:1001B000010F18BFFB1A43F001031847C074000079
:1001C000E0740000103A24BF78C878C1FAD852070A
:1001D00024BF30C830C144BF04680C6070470000C1
:1001E0000023002400250026103A28BF78C1FBD840
:1001F000520728BF30C148BF0B607047642900F028
:100200009180782900F0CA80002070471FB505F062
:10021000DDFC1FBD10B510BD00F0F4F91146FFF76D
:10022000F5FF05F001FB00F012FA03B4FFF7F2FF4F
:1002300003BC05F020FA0000094880470948004740
:10024000FEE7FEE7FEE7FEE7FEE7FEE7FEE7FEE786
:10025000FEE7FEE704480549054A064B70470000E3
:100260000D51000889010008C8050020C80B0020B6
:10027000C8070020C8070020704700000FB40449D9
:1002800010B503AA029800F075F910BC5DF814FBD4
:100290001C0000200FB41CB5074B06AA7B4469461E
:1002A0000090059800F04DF90020694600F05CF9D7
:1002B0001CBC5DF814FB0000C90200002DE9F041F0
:1002C0000E460446002020622046E168884730B38D
:1002D000252805D0D4E901219047206A401CF2E787
:1002E000E168204600278847050018D0A5F14100A5
:1002F000192802D820354FF4006732462946204697
:100300002760FFF77BFF40B1012804D0F61D26F0DF
:1003100007060836D8E7361DD6E72846DAE7206A0A
:10032000BDE8F0812DE9F0410646002410687529EA
:10033000314616A510D0AFF30080002802DA404203
:1003400013A507E031688A0701D512A502E0490725
:1003500004D511A5012401E0AFF3008000210A2299
:1003600006F1240709E0B0FBF2FCB0FBF2F302FB5C
:100370001C00303078541846491C0028F3D123461D
:100380002A463046BDE8F04100F07DB8000000008C
:100390002D0000002B0000002000000070B5044676
:1003A0000D4621461068AFF300802188090502D56B
:1003B0000F4A7A4402E00E4A7A440E32002104F1D8
:1003C000240305E000F00F060009965D5E54491C09
:1003D0000028F7D120780023000704D5702D02D023
:1003E00009B1022311322046BDE8704000F04BB83D
:1003F0000A720000032A40F2308010F0030C00F073
:10040000158011F8013BBCF1020F624498BF11F84E
:1004100001CB00F8013B38BF11F8013BA2F1040207
:1004200098BF00F801CB38BF00F8013B11F003037F
:1004300000F0B280083AC0F0088051F8043B083A56
:1004400051F804CBA0E80810F5E7121D5CBF51F885
:10045000043B40F8043BAFF30080D20724BF11F8FF
:10046000013B11F801CB48BF11F8012B24BF00F864
:10047000013B00F801CB48BF00F8012B70477047E3
:100480007047704770472DE9F0470D4699469246F0
:10049000044600F124080168880604D5E06921F0CB
:1004A0001001216000E00120A84201DD471B00E0AF
:1004B0000027A1697A1902EB0900081AA0612078C7
:1004C000C00602D42046AFF30080002608E0D4E93D
:1004D00001211AF806009047206A401C761C206211
:1004E0004E45F4DB2078C0060AD52046AFF30080E5
:1004F00006E0D4E9012130209047206A401C2062A8
:10050000381EA7F10107F4DC07E0D4E9012118F84F
:1005100005009047206A401C2062281EA5F10105B5
:10052000F3DC2046AFF300802078000602D50220DD
:10053000BDE8F0870120FBE701694A1C02610878E9
:10054000704700B58FB0CDE9013100210591054913
:100550007944CDE9031011466846FFF7AFFE0FB0AE
:1005600000BD0000E5FFFFFF0A6802F8010B0A600A
:1005700070470000074B70B50D467B44FFF7E1FF65
:100580000446284600F03AF810B14FF0FF3070BD35
:10059000204670BD0B52000010B5203AC0F00B8011
:1005A000B1E81850203AA0E81850B1E81850A0E877
:1005B0001850BFF4F5AF5FEA027C24BFB1E81850D1
:1005C000A0E8185044BF18C918C0BDE810405FEA41
:1005D000827C24BF51F8043B40F8043B08BF7047BD
:1005E000D20728BF31F8023B48BF11F8012B28BFC2
:1005F00020F8023B48BF00F8012B7047007B00F059
:1006000080007047754600F02BF8AE46050069463D
:10061000534620F00700854618B020B5FFF71AFEB4
:10062000BDE820404FF000064FF000074FF00008F3
:100630004FF0000B21F00701AC46ACE8C009ACE874
:10064000C009ACE8C009ACE8C0098D46704710B5D8
:100650000446AFF300802046BDE81040FFF7E5BD3B
:10066000004870476405002000BFFEE72DE9F84F01
:1006700007460C4690464FF00009CA460025002662
:10068000A346A01D00900425A7F1500010283AD2DF
:10069000DFE800F01608190F1E2326292C2F323907
:1006A000393939354FF0340903254FF0400A012616
:1006B0002BE04FF03D0903254FF02E0A012624E0E0
:1006C0004FF0300921E04FF037094FF003081CE0EC
:1006D0004FF03A094FF0030817E04FF0410914E0DA
:1006E0004FF0450911E04FF049090EE04FF04D0978
:1006F0000BE04FF0510908E04FF0550905E01448B0
:10070000D0F8009001E0BDE8F88F00BFB8F1030F0A
:1007100001D1032500265DB16A000E4901EB4900B5
:100720005946FFF767FE294648460B4A126890472C
:100730005EB17200074901EB4A000099FFF75AFECB
:1007400031465046044A1268904700BFDBE700007C
:10075000A0000020200400208C00002001494861F6
:100760007047000000000550014600200022044BA5
:100770001B6903EA01020AB1012000E00020704772
:100780000000055010B50120FFF7EEFF012811D140
:1007900005F008F80120FFF7E1FF0748006808B9F5
:1007A000012000E000200449086004480078401C53
:1007B0000249087010BD0000A8824242A600002035
:1007C00021B1026842F00102026003E0026822F0F7
:1007D000010202607047014600200A6802F001022F
:1007E0000AB1012000E0002070470146486880B24D
:1007F000704741607047704751B18200A2F1C0421A
:10080000126842F001038200A2F1C042136009E0C5
:100810008200A2F1C0421268034B1A408300A3F188
:10082000C0431A6070470000FEFF0F00D0E90112BC
:100830001143C2681143026911434269114382693D
:100840001143C2691143026A1143426A1143826A29
:100850001143C26A1143026B114302689200A2F174
:10086000C0421160816808290BD101688900A1F19B
:10087000C041096841F0400201688900A1F1C0410E
:100880000A60416B0968426B526841EA0211426B8F
:10089000926841EA0221426B928941EA0241426B2D
:1008A000128A41EA0251426B127D41EA0261426BB7
:1008B000926911430268521C9200A2F1C042116079
:1008C000C16AB1F5804F1BD1816B0968826B526898
:1008D00041EA0211826B926841EA0221826B128A1C
:1008E00041EA0251826B127D41EA0261826B926998
:1008F000114302689200A2F1C042C2F8041107E05D
:100900006FF0704201688900A1F1C041C1F8042173
:100910007047F0B50A4600210023002400BF3DE0E7
:10092000012505FA01F3156805EA03049C4234D158
:1009300005684F000326BE40B543056015794E009B
:10094000B5400668354305601579012D02D015794B
:10095000022D16D185684F000326BE40B543856041
:1009600055794E00B5408668354385604568012657
:100970008E40B5434560456896798E40B6B23543A2
:100980004560C5684F000326BE40B543C560D579B4
:100990004E00B540C6683543C560491C1029BFD319
:1009A000F0BDF0B5002300244D07ED0E02FA05F36B
:1009B000CE1000F1200555F826504E07F70E0F26F1
:1009C000BE40B543CF1000F1200646F82750CE10A8
:1009D00000F1200555F8265045EA0304CE1000F139
:1009E000200545F82640F0BD00BFFEE770B504467F
:1009F000002617480588408845431548808846F6F4
:100A00000401884216D112488079012812D10020B1
:100A10000F4988712A2048812B20888100210846AF
:100A200004F02EF801200A4988712B2048812A20E1
:100A3000888103E00021084604F022F804F0D4F98C
:100A4000002602E003480480761CAE42FAD370BD53
:100A5000A80000208000006C10B50446002C66D170
:100A60006C498871F02008804FF4A07048800846D7
:100A7000808849F2413188420BD06648808846F62A
:100A80000401884205D06348808845F210318842CD
:100A90001AD12C205F4908812A2048812B20888187
:100AA0000846808846F60401884205D05948808867
:100AB00045F21031884206D14FF4A07055490880A4
:100AC0004FF4F0704880A1E05248808845F2105100
:100AD000884210D14FF430504E4908814FF42850CD
:100AE00048814FF42C5088814FF4F07008804FF407
:100AF000487048808AE04748808841F66311884200
:100B00000DD12C20434908812B2048812A2088813F
:100B10004FF4F07008804FF44870488076E022204F
:100B20003C49088120204881212088816EE00120F5
:100B3000384988714FF4A0700880F020488008463A
:100B4000808849F24131884205D03248808845F298
:100B50001031884207D12C202E4908812A20488153
:100B60002B2088813FE02B48808846F6040188428C
:100B700007D12C20274908812B2048812A208881F1
:100B800031E02448808845F21051884210D14FF45A
:100B90003050204908814FF4285048814FF42C50A0
:100BA00088814FF4487008804FF4F07048801AE054
:100BB0001848808841F6631188420DD12C201549D0
:100BC00008812A2048812B2088814FF448700880B2
:100BD0004FF4F070488006E022200E490881212061
:100BE0004881202088810B48808846F6040188428D
:100BF00005D00848808845F21031884206D14FF46C
:100C0000F070044908804FF4A0704880002003F081
:100C1000C1FD10BDA800002070B504460D46164663
:100C20005B48808849F24131884205D05848808825
:100C300045F21031884214D15549488904F0C8F86A
:100C4000201204F0B9F8E0B204F0B6F850498889EF
:100C500004F0BEF8281204F0AFF8E8B204F0ACF8E3
:100C60008CE04B48808845F21051884220D1484999
:100C7000488904F0ADF8201204F09EF844494989EF
:100C8000491C88B204F0A4F8E0B204F095F8404999
:100C9000888904F09DF8281204F08EF83C4989896F
:100CA000491C88B204F094F8E8B204F085F865E0D5
:100CB0003748808841F66311884228D134488079CA
:100CC00020B933480088401E001B84B2304948894F
:100CD00004F07EF8201204F06FF8E0B204F06CF833
:100CE000201204F069F8E0B204F066F82849888917
:100CF00004F06EF8281204F05FF8E8B204F05CF833
:100D0000281204F059F8E8B204F056F836E020480A
:100D1000808846F6040188421DD11D48807901284B
:100D200004D11B480088401E001B84B21849488922
:100D300004F04EF8201204F03FF8E0B204F03CF862
:100D40001349888904F044F8281204F035F8E8B211
:100D500004F032F812E00E488079012804D10C48E2
:100D60000088401E001B84B209494889214604F0CE
:100D700045F807498889294604F040F80448008965
:100D8000044908804FF0D840A0F8806070BD000092
:100D9000A80000207E00006C00B5A1B000202090CB
:100DA00001217A2004F080F80121084604F08CF833
:100DB0004FF400401E9001208DF87C0000208DF83B
:100DC0007E0002208DF87D0001208DF87F001EA995
:100DD000FE48FFF79EFD4CF233701E9002208DF806
:100DE0007C0000208DF87E0003208DF87D0001201E
:100DF0008DF87F001EA9F648FFF78BFD4FF6807037
:100E00001E9002208DF87C0000208DF87E000320CB
:100E10008DF87D0001208DF87F001EA9ED48FFF7B9
:100E200078FD4FF480501E9002208DF87C00002049
:100E30008DF87E0003208DF87D0001208DF87F0065
:100E40001EA9E548FFF765FD4FF480501E90022073
:100E50008DF87C0000208DF87E0003208DF87D0049
:100E600001208DF87F001EA9DC48FFF752FD0C22FF
:100E70000021D748FFF795FD0C220121D448FFF748
:100E800090FD0C220421D248FFF78BFD0C22052196
:100E9000CF48FFF786FD0C220821CD48FFF781FDE2
:100EA0000C220921CA48FFF77CFD0C220A21C84800
:100EB000FFF777FD0C220E21C548FFF772FD0C22CB
:100EC0000F21C348FFF76DFD0C220721C148FFF732
:100ED00068FD0C220821BF48FFF763FD0C220921A1
:100EE000BC48FFF75EFD0C220A21BA48FFF759FD06
:100EF0000C220B21B748FFF754FD0C221146B548D0
:100F0000FFF74FFD0C220D21B248FFF74AFD0C22DE
:100F10000E21B048FFF745FD0C220F21AD48FFF729
:100F200040FD0C221146AC48FFF73BFD0C22114658
:100F3000AA48FFF736FD0F200890002009903C20BA
:100F40000A9000200B900C900D900E9009200190BB
:100F50000020029008200390002004900590069045
:100F6000079006200F9000201090119010201290F2
:100F70000020139015901490169017904FF4805005
:100F80001890002019904FF480401A9000201B9078
:100F900008A81C9001A81D900FA8FFF747FC01218D
:100FA0000620FFF729FC322004F086FB01210020F7
:100FB00003F024FF322004F07FFB002003F0AEFB9F
:100FC0008749888008468088FF280ADB0846808891
:100FD0004FF6FF71884204D081488088B0F5134FE6
:100FE0007ED1D32003F0F4FE03F08EFB7C49888091
:100FF00003F08AFB7A49888003F086FB7849888071
:10100000084680884FF6FF7101EA00207449888005
:1010100003F07AFB72498988084371498880084641
:10102000808849F2413188425AD0BF2003F0D0FE77
:1010300003F06AFB6A49888003F066FB6849888090
:1010400003F062FB6649888003F05EFB6449888098
:10105000084680884FF6FF7101EA002060498880C9
:1010600003F052FB5E49898808435D498880084641
:10107000808846F6040188427AD0D42003F0A8FE86
:1010800003F042FB5649888003F03EFB54498880B8
:1010900003F03AFB52498880084680884FF6FF717A
:1010A00001EA00204E49888003F02EFB4C498988D4
:1010B00008434B4988800846808845F210318842B1
:1010C00056D04FF45A4003F083FE03F01DFB444911
:1010D00088804FF45B4003F07BFE03F015FB00E0DB
:1010E00046E03F498880084680884FF6FF7101EA54
:1010F00000203B4988804FF45C4003F069FE03F018
:1011000003FB374989880843354988800846808829
:10111000B0F5004F02D145F21050888030488088E9
:1011200045F21051884223D0A12003F051FE03F074
:10113000EBFA2B49888003F0E7FA294988800846B2
:1011400080884FF6FF7101EA00202549888003F06E
:10115000DBFA23498988084321498880084680882A
:1011600045F26171884203D141F663101C498880C1
:101170001B48808849F24131884211D01848808844
:1011800045F2103188420BD01548808845F2105145
:10119000884205D01248808841F6631188422DD1DB
:1011A0001048006820F00F004FF02041C1F81C01EA
:1011B0000846D0F81C0120F47060C1F81C010846F4
:1011C000D0F81C0140F003000EE0000000040240D3
:1011D000000C0240001002400014024000180240BF
:1011E000A80000201C0100A0C1F81C010846D0F88E
:1011F0001C0140F40070C1F81C0128E0FE48808802
:1012000046F60401884205D0FB4880884CF205511F
:1012100088421CD1F948006820F00F004FF02041AF
:10122000C1F81C010846D0F81C0120F47060C1F818
:101230001C010846D0F81C0140F00A00C1F81C014E
:101240000846D0F81C0140F44060C1F81C01EA488F
:101250008188EBA0FFF712F8E748808849F2413116
:1012600088427CD1CF2003F0B3FD002003F0A4FD21
:10127000C12003F0A1FD302003F09EFDED2003F01E
:10128000A7FD642003F098FD032003F095FD1220D4
:1012900003F092FD812003F08FFDE82003F098FD1C
:1012A000852003F089FD102003F086FD7A2003F0ED
:1012B00083FDCB2003F08CFD392003F07DFD2C2035
:1012C00003F07AFD002003F077FD342003F074FD75
:1012D000022003F071FDF72003F07AFD202003F0D7
:1012E0006BFDEA2003F074FD002003F065FD002093
:1012F00003F062FDC02003F06BFD1B2003F05CFDDA
:10130000C12003F065FD012003F056FDC52003F068
:101310005FFD302003F050FD302003F04DFDC7206D
:1013200003F056FDB72003F047FD362003F050FDD3
:10133000482003F041FD3A2003F04AFD552003F018
:101340003BFDB12003F044FD002003F035FD1A20E1
:1013500003F032FDB62003F03BFD0A2000E099E0E7
:1013600003F02AFDA22003F027FDF22003F030FD58
:10137000002003F021FD262003F02AFD012003F0C8
:101380001BFDE02003F024FD0F2003F015FD2A20B3
:1013900003F012FD282003F00FFD082003F00CFDE0
:1013A0000E2003F009FD082003F006FD542003F091
:1013B00003FDA92003F000FD432003F0FDFC0A20FB
:1013C00003F0FAFC0F2003F0F7FC002003F0F4FC1C
:1013D000002003F0F1FC002003F0EEFC002003F0FD
:1013E000EBFCE12003F0F4FC002003F0E5FC152009
:1013F00003F0E2FC172003F0DFFC072003F0DCFC25
:10140000112003F0D9FC062003F0D6FC2B2003F0BA
:10141000D3FC562003F0D0FC3C2003F0CDFC05208B
:1014200003F0CAFC102003F0C7FC0F2003F0C4FC3B
:101430003F2003F0C1FC3F2003F0BEFC0F2003F06F
:10144000BBFC2B2003F0C4FC002003F0B5FC002003
:1014500003F0B2FC012003F0AFFC3F2003F0ACFC32
:101460002A2003F0B5FC002003F0A6FC002003F0C6
:10147000A3FC002003F0A0FCEF2003F09DFC112052
:1014800003F0A6FC782004F017F9292003F0A0FC53
:1014900003F02AB95848808846F6040188427CD176
:1014A000112003F095FC142004F006F9D02003F07D
:1014B0008FFC072003F080FC422003F07DFC1D2000
:1014C00003F07AFCD12003F083FC002003F074FCCD
:1014D0001A2003F071FC092003F06EFCD22003F007
:1014E00077FC012003F068FC222003F065FCC0209B
:1014F00003F06EFC102003F05FFC3B2003F05CFC6B
:10150000002003F059FC022003F056FC112003F0E8
:1015100053FCC52003F05CFC032003F04DFCC82005
:1015200003F056FC002003F047FC252003F044FCA8
:10153000212003F041FC052003F03EFC002003F0D5
:101540003BFC0A2003F038FC652003F035FC252025
:1015500003F032FC772003F02FFC502003F02CFC2A
:101560000F2003F029FC002003F026FCF82003F0F4
:101570002FFC012003F020FCFE2003F029FC0020BA
:1015800003F01AFC022003F017FC202003F020FCDB
:10159000362003F01DFC082000E039E003F00CFCCD
:1015A0003A2003F015FC552003F006FC2B2003F035
:1015B0000FFC002003F000FC002003F0FDFB0120E5
:1015C00003F0FAFB3F2003F0F7FB2A2003F000FCB6
:1015D000002003F0F1FB002003F0EEFB012003F0FC
:1015E000EBFBDF2003F0E8FB782004F065F829200E
:1015F00003F0EEFB4CE70000A80000201C0100A057
:10160000204C43442049443A25780D0A000000004C
:10161000FE48808845F21031884240F07C87ED20FA
:1016200003F0D6FB012003F0C7FBFE2003F0C4FB50
:10163000EE2003F0CDFBDE2003F0BEFB212003F003
:10164000BBFBF12003F0C4FB012003F0B5FBDF205E
:1016500003F0BEFB102003F0AFFBC42003F0B8FB87
:101660008F2003F0A9FBC62003F0B2FB002003F09B
:10167000A3FBE22003F0A0FBE22003F09DFBE220AD
:1016800003F09AFBBF2003F0A3FBAA2003F094FB16
:10169000B02003F09DFB0D2003F08EFB002003F033
:1016A0008BFB0D2003F088FB002003F085FB11204D
:1016B00003F082FB002003F07FFB192003F07CFB8A
:1016C000002003F079FB212003F076FB002003F0DB
:1016D00073FB2D2003F070FB002003F06DFB3D2019
:1016E00003F06AFB002003F067FB5D2003F064FB5E
:1016F000002003F061FB5D2003F05EFB002003F09F
:101700005BFBB12003F064FB802003F055FB00205D
:1017100003F052FB8B2003F04FFB002003F04CFB47
:10172000962003F049FB002003F046FBB22003F0B3
:101730004FFB002003F040FB002003F03DFB0220A4
:1017400003F03AFB002003F037FB032003F034FBE7
:10175000002003F031FBB32003F03AFB002003F03C
:101760002BFB002003F028FB002003F025FB0020CA
:1017700003F022FB002003F01FFB002003F01CFB02
:10178000002003F019FB002003F016FB002003F0FB
:1017900013FB002003F010FB002003F00DFB0020E2
:1017A00003F00AFB002003F007FB002003F004FB1A
:1017B000002003F001FB002003F0FEFA002003F0FC
:1017C000FBFA002003F0F8FA002003F0F5FA0020FD
:1017D00003F0F2FA002003F0EFFA002003F0ECFA35
:1017E000002003F0E9FA002003F0E6FAB42003F049
:1017F000EFFA8B2003F0E0FA002003F0DDFA9620E8
:1018000003F0DAFA002003F0D7FAA12003F0D4FAAB
:10181000002003F0D1FAB52003F0DAFA022003F039
:10182000CBFA002003F0C8FA032003F0C5FA002029
:1018300003F0C2FA042003F0BFFA002003F0BCFA60
:10184000B62003F0C5FA002003F0B6FA002003F03A
:10185000B3FAB72003F0BCFA002003F0ADFA002081
:1018600003F0AAFA3F2003F0A7FA002003F0A4FA3D
:101870005E2003F0A1FA002003F09EFA642003F03A
:101880009BFA002003F098FA8C2003F095FA0020D0
:1018900003F092FAAC2003F08FFA002003F08CFAE8
:1018A000DC2003F089FA002003F086FA702003F0B0
:1018B00083FA002003F080FA902003F07DFA0020E4
:1018C00003F07AFAEB2003F077FA002003F074FAC1
:1018D000DC2003F071FA002003F06EFAB82003F068
:1018E00077FA002003F068FA002003F065FA002080
:1018F00003F062FA002003F05FFA002003F05CFAC4
:10190000002003F059FA002003F056FA002003F0FB
:1019100053FABA2003F05CFA242003F04DFA0020B9
:1019200003F04AFA002003F047FA002003F044FADB
:10193000C12003F04DFA202003F03EFA002003F00E
:101940003BFA542003F038FA002003F035FAFF2068
:1019500003F032FA002003F02FFAC22003F038FA25
:101960000A2003F029FA002003F026FA042003F0ED
:1019700023FA002003F020FAC32003F029FA3C20C8
:1019800003F01AFA002003F017FA3A2003F014FAD1
:10199000002003F011FA392003F00EFA002003F0C2
:1019A0000BFA372003F008FA002003F005FA3C2078
:1019B00003F002FA002003F0FFF9362003F0FCF9EF
:1019C000002003F0F9F9322003F0F6F9002003F0CB
:1019D000F3F92F2003F0F0F9002003F0EDF92C20AB
:1019E00003F0EAF9002003F0E7F9292003F0E4F915
:1019F000002003F0E1F9262003F0DEF9002003F0D7
:101A0000DBF9242003F0D8F9002001E0A800002031
:101A100003F0D2F9242003F0CFF9002003F0CCF931
:101A2000232003F0C9F9002003F0C6F93C2003F09D
:101A3000C3F9002003F0C0F9362003F0BDF90020FF
:101A400003F0BAF9322003F0B7F9002003F0B4F93B
:101A50002F2003F0B1F9002003F0AEF92C2003F0A1
:101A6000ABF9002003F0A8F9292003F0A5F9002024
:101A700003F0A2F9262003F09FF9002003F09CF95F
:101A8000242003F099F9002003F096F9242003F0B4
:101A900093F9002003F090F9232003F08DF9002042
:101AA00003F08AF9C42003F093F9622003F084F96B
:101AB000002003F081F9052003F07EF9002003F0F7
:101AC0007BF9842003F078F9002003F075F9F02009
:101AD00003F072F9002003F06FF9182003F06CF99D
:101AE000002003F069F9A42003F066F9002003F058
:101AF00063F9182003F060F9002003F05DF950202D
:101B000003F05AF9002003F057F90C2003F054F9C0
:101B1000002003F051F9172003F04EF9002003F0E4
:101B20004BF9952003F048F9002003F045F9F32024
:101B300003F042F9002003F03FF9E62003F03CF9FE
:101B4000002003F039F9C52003F042F9322003F0F8
:101B500033F9002003F030F9442003F02DF9002080
:101B600003F02AF9652003F027F9002003F024F997
:101B7000762003F021F9002003F01EF9882003F0FD
:101B80001BF9002003F018F9C62003F021F92020EA
:101B900003F012F9002003F00FF9172003F00CF9FD
:101BA000002003F009F9012003F006F9002003F0FA
:101BB00003F9C72003F00CF9002003F0FDF8002022
:101BC00003F0FAF8002003F0F7F8002003F0F4F82F
:101BD000C82003F0FDF8002003F0EEF8002003F029
:101BE000EBF8002003F0E8F8002003F0E5F8C92046
:101BF00003F0EEF8002003F0DFF8002003F0DCF83B
:101C0000002003F0D9F8002003F0D6F8002003F0FC
:101C1000D3F8002003F0D0F8002003F0CDF8002026
:101C200003F0CAF8002003F0C7F8002003F0C4F85E
:101C3000002003F0C1F8002003F0BEF8002003F0FC
:101C4000BBF8002003F0B8F8002003F0B5F800203E
:101C500003F0B2F8E02003F0BBF8162003F0ACF874
:101C6000002003F0A9F81C2003F0A6F8002003F0E0
:101C7000A3F8212003F0A0F8002003F09DF83620FF
:101C800003F09AF8002003F097F8462003F094F848
:101C9000002003F091F8522003F08EF8002003F0AA
:101CA0008BF8642003F088F8002003F085F87A2090
:101CB00003F082F8002003F07FF88B2003F07CF81B
:101CC000002003F079F8992003F076F8002003F063
:101CD00073F8A82003F070F8002003F06DF8B92025
:101CE00003F06AF8002003F067F8C42003F064F8FA
:101CF000002003F061F8CA2003F05EF8002003F032
:101D00005BF8D22003F058F8002003F055F8D920F2
:101D100003F052F8002003F04FF8E02003F04CF8F5
:101D2000002003F049F8F32003F046F8002003F008
:101D300043F8E12003F04CF8162003F03DF80020B2
:101D400003F03AF81C2003F037F8002003F034F8D1
:101D5000222003F031F8002003F02EF8362003F0A3
:101D60002BF8002003F028F8452003F025F8002088
:101D700003F022F8522003F01FF8002003F01CF8B3
:101D8000642003F019F8002003F016F87A2003F01D
:101D900013F8002003F010F88B2003F00DF800205A
:101DA00003F00AF8992003F007F8002003F004F884
:101DB000A82003F001F8002002F0FEFFB92002F095
:101DC000FBFF002002F0F8FFC42002F0F5FF002026
:101DD00002F0F2FFCA2002F0EFFF002002F0ECFF59
:101DE000D22002F0E9FF002002F0E6FFD82002F046
:101DF000E3FF002002F0E0FFE02002F0DDFF002022
:101E000002F0DAFFF32002F0D7FF002002F0D4FF47
:101E1000E22002F0DDFF052002F0CEFF002002F0FC
:101E2000CBFF0B2002F0C8FF002002F0C5FF1B20F3
:101E300002F0C2FF002002F0BFFF342002F0BCFF1E
:101E4000002002F0B9FF442002F0B6FF002002F0AB
:101E5000B3FF4F2002F0B0FF002002F0ADFF612081
:101E600002F0AAFF002002F0A7FF792002F0A4FFF1
:101E7000002002F0A1FF882002F09EFF002002F067
:101E80009BFF972002F098FF002002F095FFA6200C
:101E900002F092FF002002F08FFFB72002F08CFFCB
:101EA000002002F089FFC22002F086FF002002F02D
:101EB00083FFC72002F080FF002002F07DFFD120C9
:101EC00002F07AFF002002F077FFD62002F074FFC4
:101ED000002002F071FFDD2002F06EFF002002F012
:101EE0006BFFF32002F068FF002002F065FFE320A3
:101EF00002F06EFF052002F05FFF002002F05CFFA1
:101F00000A2002F059FF002002F056FF1C2002F0C8
:101F100053FF002002F050FF332002F04DFF00205D
:101F200002F04AFF442002F047FF002002F044FF85
:101F3000502002F041FF002002F03EFF622002F03C
:101F40003BFF002002F038FF782002F035FF002030
:101F500002F032FF882002F02FFF002002F02CFF59
:101F6000972002F029FF002002F026FFA62002F0B1
:101F700023FF002002F020FFB72002F01DFF002009
:101F800002F01AFFC22002F017FF002002F014FF37
:101F9000C72002F011FF002002F00EFFD12002F056
:101FA0000BFF002002F008FFD52002F005FF002003
:101FB00002F002FFDD2002F0FFFE002002F0FCFE36
:101FC000F32002F0F9FE002002F0F6FEE42002F019
:101FD000FFFE012002F0F0FE002002F0EDFE0120E5
:101FE00002F0EAFE002002F0E7FE022002F0E4FE2A
:101FF000002002F0E1FE2A2002F0DEFE002002F0C6
:10200000DBFE3C2002F0D8FE002002F0D5FE4B2083
:1020100002F0D2FE002002F0CFFE5D2002F0CCFEE6
:10202000002002F0C9FE742002F0C6FE002002F07B
:10203000C3FE842002F0C0FE002002F0BDFE93200B
:1020400002F0BAFE002002F0B7FEA22002F0B4FEB9
:10205000002002F0B1FEB32002F0AEFE002002F03C
:10206000ABFEBE2002F0A8FE002002F0A5FEC420B8
:1020700002F0A2FE002002F09FFECD2002F09CFEA6
:10208000002002F099FED32002F096FE002002F01C
:1020900093FEDD2002F090FE002002F08DFEF32082
:1020A00002F08AFE002002F087FEE52002F090FE9A
:1020B000002002F081FE002002F07EFE002002F0EF
:1020C0007BFE002002F078FE022002F075FE002068
:1020D00002F072FE292002F06FFE002002F06CFE7A
:1020E0003C2002F069FE002002F066FE4B2002F068
:1020F00063FE002002F060FE5D2002F05DFE002025
:1021000002F05AFE742002F057FE002002F054FE46
:10211000842002F051FE002002F04EFE932002F0D7
:102120004BFE002002F048FEA22002F045FE0020F7
:1021300002F042FEB32002F03FFE002002F03CFE1F
:10214000BE2002F039FE002002F036FEC42002F06C
:1021500033FE002002F030FECD2002F02DFE0020E4
:1021600002F02AFED32002F027FE002002F024FE17
:10217000DC2002F021FE002002F01EFEF32002F01F
:102180001BFE002002F018FEE62002F021FE1120C6
:1021900002F012FE002002F00FFE342002F00CFECE
:1021A000002002F009FE562002F006FE002002F098
:1021B00003FE762002F000FE002002F0FDFD7720F5
:1021C00002F0FAFD002002F0F7FD662002F0F4FDB7
:1021D000002002F0F1FD882002F0EEFD002002F068
:1021E000EBFD992002F0E8FD002002F0E5FDBB20A8
:1021F00002F0E2FD002002F0DFFD992002F0DCFD9C
:10220000002002F0D9FD662002F0D6FD002002F089
:10221000D3FD552002F0D0FD002002F0CDFD552069
:1022200002F0CAFD002002F0C7FD452002F0C4FD07
:10223000002002F0C1FD432002F0BEFD002002F0AC
:10224000BBFD442002F0B8FD002002F0B5FDE72000
:1022500002F0BEFD322002F0AFFD002002F0ACFD26
:10226000552002F0A9FD002002F0A6FD762002F024
:10227000A3FD002002F0A0FD662002F09DFD0020DD
:1022800002F09AFD672002F097FD002002F094FD15
:10229000672002F091FD002002F08EFD872002F001
:1022A0008BFD002002F088FD992002F085FD0020C2
:1022B00002F082FDBB2002F07FFD002002F07CFDD9
:1022C000992002F079FD002002F076FD772002F0DF
:1022D00073FD002002F070FD442002F06DFD00202F
:1022E00002F06AFD562002F067FD002002F064FD56
:1022F000232002F061FD002002F05EFD332002F099
:102300005BFD002002F058FD452002F055FD002045
:1023100002F052FDE82002F05BFD002002F04CFDCF
:10232000002002F049FD992002F046FD002002F055
:1023300043FD872002F040FD002002F03DFD882093
:1023400002F03AFD002002F037FD772002F034FD64
:10235000002002F031FD662002F02EFD002002F088
:102360002BFD882002F028FD002002F025FDAA2088
:1023700002F022FD002002F01FFDBB2002F01CFD38
:10238000002002F019FD992002F016FD002002F055
:1023900013FD662002F010FD002002F00DFD552017
:1023A00002F00AFD002002F007FD552002F004FDB6
:1023B000002002F001FD442002F0FEFC002002F0AB
:1023C000FBFC442002F0F8FC002002F0F5FC552054
:1023D00002F0F2FC002002F0EFFCE92002F0F8FC31
:1023E000AA2002F0E9FC002002F0E6FC002002F046
:1023F000E3FC002002F0E0FC002002F0E9FCAA204F
:1024000002F0DAFCCF2002F0E3FC002002F0D4FC62
:10241000002002F0D1FC002002F0CEFC002002F0EF
:10242000CBFC002002F0C8FC002002F0C5FC00201C
:1024300002F0C2FC002002F0BFFC002002F0BCFC55
:10244000002002F0B9FC002002F0B6FC002002F0EF
:10245000B3FC002002F0B0FC002002F0ADFC002034
:1024600002F0AAFC002002F0A7FC002002F0A4FC6D
:10247000F02002F0ADFC002002F09EFC502002F0A3
:102480009BFC002002F098FC002002F095FC00204C
:1024900002F092FCF32002F09BFC002002F08CFC86
:1024A000F92002F095FC062002F086FC102002F0D4
:1024B00083FC292002F080FC002002F07DFC3A2001
:1024C00002F086FC552002F077FC112002F080FC1F
:1024D000642003F0F1F8292002F07AFC352002F0A4
:1024E00077FC002002F068FC512002F071FCFF2014
:1024F00002F062FC532002F06BFC2C2002F05CFC2A
:10250000552002F065FC822002F056FC2C2002F0DF
:102510005FFC02F0E9B8FE48808845F2105188421D
:102520007ED155214FF4704002F068FCAA214FF291
:10253000010002F063FC52214FF2020002F05EFC47
:1025400008214FF2030002F059FC01214FF2040070
:1025500002F054FC0D214FF4304002F04FFC0D21ED
:102560004BF2010002F04AFC0D214BF2020002F096
:1025700045FC34214FF4364002F040FC34214BF24C
:10258000016002F03BFC34214BF2026002F036FCA9
:102590000D214FF4314002F031FC0D214BF20110BE
:1025A00002F02CFC0D214BF2021002F027FC34212A
:1025B0004FF4374002F022FC34214BF2017002F05C
:1025C0001DFC34214BF2027002F018FC00214FF484
:1025D000324002F013FC00214BF2012002F00EFC0D
:1025E00000214BF2022002F009FC24214FF4384074
:1025F00002F004FC24214BF6010002F0FFFB242131
:102600004BF6020002F0FAFB01214FF43F4002F0CA
:10261000F5FB0F214FF4334002F0F0FB0F2100E0F7
:10262000FEE34BF2013002F0E9FB0F214BF20230E6
:1026300002F0E4FB34214FF4394002F0DFFB342197
:102640004BF6011002F0DAFB34214BF6021002F0D7
:10265000D5FB08214FF4354002F0D0FB08214BF2A6
:10266000015002F0CBFB08214BF2025002F0C6FBF6
:1026700003214FF4424002F0C1FB24214FF43A40C1
:1026800002F0BCFB24214BF6012002F0B7FB242111
:102690004BF6022002F0B2FB00214FF43C4002F066
:1026A000ADFB78214BF6014002F0A8FB00214BF670
:1026B000024002F0A3FB00214FF43D4002F09EFBDC
:1026C00078214BF6015002F099FB00214BF60250A5
:1026D00002F094FB00214FF43E4002F08FFB642196
:1026E0004BF6016002F08AFB00214FF4514002F0EA
:1026F00085FB33214DF2011002F080FB00214DF2E9
:10270000021002F07BFB34214DF2031002F076FB45
:1027100000214DF2041002F071FB3A214DF2051038
:1027200002F06CFB00214DF2061002F067FB4A211B
:102730004DF2071002F062FB00214DF2081002F08A
:102740005DFB5C214DF2091002F058FB00214DF2B7
:102750000A1002F053FB81214DF20B1002F04EFBE8
:1027600000214DF20C1002F049FBA6214DF20D1094
:1027700002F044FB00214DF20E1002F03FFBE52178
:102780004DF20F1002F03AFB01214DF2101002F051
:1027900035FB13214DF2111002F030FB01214DF2F7
:1027A000121002F02BFB54214DF2131002F026FB05
:1027B00001214DF2141002F021FB82214DF215107F
:1027C00002F01CFB01214DF2161002F017FBCA218A
:1027D0004DF2171002F012FB02214DF2181002F018
:1027E0000DFB00214DF2191002F008FB02214DF201
:1027F0001A1002F003FB01214DF21B1002F0FEFA49
:1028000002214DF21C1002F0F9FA34214DF21D1094
:1028100002F0F4FA02214DF21E1002F0EFFA6721E5
:102820004DF21F1002F0EAFA02214DF2201002F0E0
:10283000E5FA84214DF2211002F0E0FA02214DF276
:10284000221002F0DBFAA4214DF2231002F0D6FA96
:1028500002214DF2241002F0D1FAB7214DF22510D9
:1028600002F0CCFA02214DF2261002F0C7FACF2175
:102870004DF2271002F0C2FA02214DF2281002F0A8
:10288000BDFADE214DF2291002F0B8FA02214DF214
:102890002A1002F0B3FAF2214DF22B1002F0AEFA38
:1028A00002214DF22C1002F0A9FAFE214DF22D105A
:1028B00002F0A4FA03214DF22E1002F09FFA10212B
:1028C0004DF22F1002F09AFA03214DF2301002F06F
:1028D00095FA33214DF2311002F090FA03214DF2B6
:1028E000321002F08BFA6D214DF2331002F086FAAD
:1028F00000214FF4524002F081FA33214DF20120C1
:1029000002F07CFA00214DF2022002F077FA01E099
:10291000A800002034214DF2032002F06FFA0021BC
:102920004DF2042002F06AFA3A214DF2052002F03D
:1029300065FA00214DF2062002F060FA4A214DF2BC
:10294000072002F05BFA00214DF2082002F056FA4F
:102950005C214DF2092002F051FA00214DF20A20CB
:1029600002F04CFA81214DF20B2002F047FA0021CF
:102970004DF20C2002F042FAA6214DF20D2002F099
:102980003DFA00214DF20E2002F038FAE5214DF219
:102990000F2002F033FA01214DF2102002F02EFA3E
:1029A00013214DF2112002F029FA01214DF21220DB
:1029B00002F024FA54214DF2132002F01FFA0121F3
:1029C0004DF2142002F01AFA82214DF2152002F085
:1029D00015FA01214DF2162002F010FACA214DF22B
:1029E000172002F00BFA02214DF2182002F006FA2D
:1029F00000214DF2192002F001FA02214DF21A20B5
:102A000002F0FCF901214DF21B2002F0F7F902213E
:102A10004DF21C2002F0F2F934214DF21D2002F09B
:102A2000EDF902214DF21E2002F0E8F967214DF286
:102A30001F2002F0E3F902214DF2202002F0DEF91E
:102A400084214DF2212002F0D9F902214DF22220F9
:102A500002F0D4F9A4214DF2232002F0CFF9022193
:102A60004DF2242002F0CAF9B7214DF2252002F0E0
:102A7000C5F902214DF2262002F0C0F9CF214DF216
:102A8000272002F0BBF902214DF2282002F0B6F90E
:102A9000DE214DF2292002F0B1F902214DF22A2067
:102AA00002F0ACF9F2214DF22B2002F0A7F902213D
:102AB0004DF22C2002F0A2F9FE214DF22D2002F061
:102AC0009DF903214DF22E2002F098F910214DF2CC
:102AD0002F2002F093F903214DF2302002F08EF9FD
:102AE00033214DF2312002F089F903214DF23220D9
:102AF00002F084F96D214DF2332002F07FF90021BC
:102B00004FF4534002F07AF933214DF2013002F0D4
:102B100075F900214DF2023002F070F934214DF2C6
:102B2000033002F06BF900214DF2043002F066F937
:102B30003A214DF2053002F061F900214DF20630E4
:102B400002F05CF94A214DF2073002F057F90021FA
:102B50004DF2083002F052F95C214DF2093002F0DA
:102B60004DF900214DF20A3002F048F981214DF271
:102B70000B3002F043F900214DF20C3002F03EF927
:102B8000A6214DF20D3002F039F900214DF20E3040
:102B900002F034F9E5214DF20F3002F02FF9012156
:102BA0004DF2103002F02AF913214DF2113002F0EB
:102BB00025F901214DF2123002F020F954214DF295
:102BC000133002F01BF901214DF2143002F016F916
:102BD00082214DF2153002F011F901214DF216302B
:102BE00002F00CF9CA214DF2173002F007F9022168
:102BF0004DF2183002F002F900214DF2193002F0C6
:102C0000FDF802214DF21A3002F0F8F801214DF2E0
:102C10001B3002F0F3F802214DF21C3002F0EEF806
:102C200034214DF21D3002F0E9F802214DF21E3040
:102C300002F0E4F867214DF21F3002F0DFF80221C4
:102C40004DF2203002F0DAF884214DF2213002F00A
:102C5000D5F802214DF2223002F0D0F8A4214DF235
:102C6000233002F0CBF802214DF2243002F0C6F8F6
:102C7000B7214DF2253002F0C1F802214DF2263085
:102C800002F0BCF8CF214DF2273002F0B7F8022154
:102C90004DF2283002F0B2F8DE214DF2293002F078
:102CA000ADF802214DF22A3002F0A8F8F2214DF2DF
:102CB0002B3002F0A3F802214DF22C3002F09EF8E6
:102CC000FE214DF22D3002F099F803214DF22E3005
:102CD00002F094F810214DF22F3002F08FF803210A
:102CE0004DF2303002F08AF833214DF2313002F0EB
:102CF00085F803214DF2323002F080F86D214DF25B
:102D0000333002F07BF800214FF4544002F076F8A3
:102D100033214DF2014002F071F800214DF20240E2
:102D200002F06CF834214DF2034002F067F8002104
:102D30004DF2044002F062F83A214DF2054002F0F3
:102D40005DF800214DF2064002F058F84A214DF29C
:102D5000074002F053F800214DF2084002F04EF80F
:102D60005C214DF2094002F049F800214DF20A4081
:102D700002F044F881214DF20B4002F03FF80021AF
:102D80004DF20C4002F03AF8A6214DF20D4002F04F
:102D900035F800214DF20E4002F030F8E5214DF2F9
:102DA0000F4002F02BF801214DF2104002F026F8FE
:102DB00013214DF2114002F021F801214DF2124091
:102DC00002F01CF854214DF2134002F017F80121D3
:102DD0004DF2144002F012F882214DF2154002F03B
:102DE0000DF801214DF2164002F008F8CA214DF20B
:102DF000174002F003F802214DF2184001F0FEFFE7
:102E000000214DF2194001F0F9FF02214DF21A4064
:102E100001F0F4FF01214DF21B4001F0EFFF00E053
:102E200004E302214DF21C4001F0E8FF34214DF291
:102E30001D4001F0E3FF02214DF21E4001F0DEFFD4
:102E400067214DF21F4001F0D9FF02214DF22040D1
:102E500001F0D4FF84214DF2214001F0CFFF022187
:102E60004DF2224001F0CAFFA4214DF2234001F0AF
:102E7000C5FF02214DF2244001F0C0FFB7214DF201
:102E8000254001F0BBFF02214DF2264001F0B6FFC4
:102E9000CF214DF2274001F0B1FF02214DF2284031
:102EA00001F0ACFFDE214DF2294001F0A7FF022125
:102EB0004DF22A4001F0A2FFF2214DF22B4001F029
:102EC0009DFF02214DF22C4001F098FFFE214DF2B2
:102ED0002D4001F093FF03214DF22E4001F08EFFB3
:102EE00010214DF22F4001F089FF03214DF23040B7
:102EF00001F084FF33214DF2314001F07FFF0321C7
:102F00004DF2324001F07AFF6D214DF2334001F075
:102F100075FF00214FF4554001F070FF33214DF251
:102F2000015001F06BFF00214DF2025001F066FFED
:102F300034214DF2035001F061FF00214DF20450A5
:102F400001F05CFF3A214DF2055001F057FF0021DE
:102F50004DF2065001F052FF4A214DF2075001F0A8
:102F60004DFF00214DF2085001F048FF5C214DF269
:102F7000095001F043FF00214DF20A5001F03EFFDD
:102F800081214DF20B5001F039FF00214DF20C5020
:102F900001F034FFA6214DF20D5001F02FFF00216A
:102FA0004DF20E5001F02AFFE5214DF20F5001F0D5
:102FB00025FF01214DF2105001F020FF13214DF2A9
:102FC000115001F01BFF01214DF2125001F016FFCC
:102FD00054214DF2135001F011FF01214DF2145014
:102FE00001F00CFF82214DF2155001F007FF012185
:102FF0004DF2165001F002FFCA214DF2175001F0B8
:10300000FDFE02214DF2185001F0F8FE00214DF2B4
:10301000195001F0F3FE02214DF21A5001F0EEFEBC
:1030200001214DF21B5001F0E9FE02214DF21C502E
:1030300001F0E4FE34214DF21D5001F0DFFE0221CB
:103040004DF21E5001F0DAFE67214DF21F5001F0E3
:10305000D5FE02214DF2205001F0D0FE84214DF228
:10306000215001F0CBFE02214DF2225001F0C6FEAC
:10307000A4214DF2235001F0C1FE02214DF2245053
:1030800001F0BCFEB7214DF2255001F0B7FE022140
:103090004DF2265001F0B2FECF214DF2275001F043
:1030A000ADFE02214DF2285001F0A8FEDE214DF2C6
:1030B000295001F0A3FE02214DF22A5001F09EFE9C
:1030C000F2214DF22B5001F099FE02214DF22C50CD
:1030D00001F094FEFE214DF22D5001F08FFE0321F0
:1030E0004DF22E5001F08AFE10214DF22F5001F0CA
:1030F00085FE03214DF2305001F080FE33214DF268
:10310000315001F07BFE03214DF2325001F076FE8A
:103110006D214DF2335001F071FE00214FF4564005
:1031200001F06CFE33214DF2016001F067FE0021D9
:103130004DF2026001F062FE34214DF2036001F0B5
:103140005DFE00214DF2046001F058FE3A214DF27F
:10315000056001F053FE00214DF2066001F04EFEC5
:103160004A214DF2076001F049FE00214DF208604E
:1031700001F044FE5C214DF2096001F03FFE0021A8
:103180004DF20A6001F03AFE81214DF20B6001F030
:1031900035FE00214DF20C6001F030FEA6214DF20B
:1031A0000D6001F02BFE00214DF20E6001F026FEB5
:1031B000E5214DF20F6001F021FE01214DF210607A
:1031C00001F01CFE13214DF2116001F017FE0121E8
:1031D0004DF2126001F012FE54214DF2136001F025
:1031E0000DFE01214DF2146001F008FE82214DF226
:1031F000156001F003FE01214DF2166001F0FEFDA5
:10320000CA214DF2176001F0F9FD02214DF218605C
:1032100001F0F4FD00214DF2196001F0EFFD0221F3
:103220004DF21A6001F0EAFD01214DF21B6001F040
:10323000E5FD02214DF21C6001F0E0FD34214DF26C
:103240001D6001F0DBFD02214DF21E6001F0D6FD94
:1032500067214DF21F6001F0D1FD02214DF2206087
:1032600001F0CCFD84214DF2216001F0C7FD022167
:103270004DF2226001F0C2FDA4214DF2236001F065
:10328000BDFD02214DF2246001F0B8FDB7214DF2E1
:10329000256001F0B3FD02214DF2266001F0AEFD84
:1032A000CF214DF2276001F0A9FD02214DF22860E7
:1032B00001F0A4FDDE214DF2296001F09FFD022105
:1032C0004DF22A6001F09AFDF2214DF22B6001F0DF
:1032D00095FD02214DF22C6001F090FDFE214DF292
:1032E0002D6001F08BFD03214DF22E6001F086FD73
:1032F00010214DF22F6001F081FD03214DF230606D
:1033000001F07CFD33214DF2316001F077FD0321A6
:103310004DF2326001F072FD6D214DF2336001F02B
:103320006DFD55214FF4704001F068FDAA214FF268
:10333000010001F063FD52214FF2020001F05EFD39
:1033400008214FF2030001F059FD00214FF2040063
:1033500001F054FDCC214FF4314001F04FFD00212C
:103360004BF2011001F04AFD05214FF4364001F007
:1033700045FD70214FF4374001F040FD70214BF2C4
:10338000017001F03BFD01214FF4384001F036FDA2
:1033900003214BF6010001F031FD03214BF6020041
:1033A00001F02CFD03214BF6030001F027FD022163
:1033B0004FF43C4001F022FD00214BF6014001F0AA
:1033C0001DFD00214BF6024001F018FDD0214FF405
:1033D000494001F013FD02214CF6011001F00EFDF1
:1033E00050214CF6021001F009FD50214CF603105B
:1033F00001F004FD50214CF6041001F0FFFC002107
:103400004FF4545001F0FAFC55214FF4685001F08C
:10341000F5FC4FF4885001F0DBFC782002F068F9ED
:103420004FF4245001F0D4FC01F05EB9FE488088CE
:1034300049F2253188427DD147F6F001E52001F0BF
:10344000DDFC4FF48071012001F0D8FC4FF4E06105
:10345000022001F0D3FC41F23001032001F0CEFC48
:103460000021042001F0CAFC40F20221082001F0F2
:10347000C5FC0021092001F0C1FC00210A2001F057
:10348000BDFC00210C2001F0B9FC00210D2001F051
:10349000B5FC00210F2001F0B1FC0021102001F04B
:1034A000ADFC0721112001F0A9FC0021122001F040
:1034B000A5FC0021132001F0A1FC0021072001F050
:1034C0009DFC41F29061102001F098FC40F2272110
:1034D000112001F093FC9D21122001F08FFC4FF48C
:1034E000C851132001F08AFC2521292001F086FC17
:1034F0000D212B2001F082FC0721302001F07EFC01
:1035000040F20331312001F079FC0321322001F037
:1035100075FC40F20621352001F070FC08213620B0
:1035200001F06CFC40F20641372001F067FC4FF4DB
:10353000417100E058E0382001F060FC072139209B
:1035400001F05CFC40F202613C2001F057FC0821D4
:103550003D2001F053FC0021502001F04FFCEF21F1
:10356000512001F04BFC0021522001F047FC40F2B9
:103570003F11532001F042FC4FF42741602001F03D
:103580003DFC0121612001F039FC00216A2001F09D
:1035900035FC0021802001F031FC0021812001F068
:1035A0002DFC0021822001F029FC0021832001F064
:1035B00025FC0021842001F021FC0021852001F060
:1035C0001DFC1021902001F019FC4FF4C0619220E5
:1035D00001F014FC40F23311072001F00FFC22210E
:1035E000002001F00BFC1FE78F48808849F228314A
:1035F00088427DD141F28F01EC2001F0FFFB41F2C6
:103600003421EF2001F0FAFB4FF48071012001F02A
:10361000F5FB4FF4E061022001F0F0FB41F23001D4
:10362000032001F0EBFB0021042001F0E7FB40F256
:103630000221082001F0E2FB0021092001F0DEFB5D
:1036400000210A2001F0DAFB01210C2001F0D6FB59
:1036500000210D2001F0D2FB00210F2001F0CEFB54
:103660000021102001F0CAFB0721112001F0C6FB48
:103670000021122001F0C2FB0021132001F0BEFB4B
:103680000121072001F0BAFB322002F015F841F2C7
:103690009041102001F0B2FB40F22721112001F0EF
:1036A000ADFB322002F008F88A21122001F0A6FBBF
:1036B000322002F001F84FF4D051132001F09EFBAC
:1036C0000621292001F09AFB0D212B2001F096FB09
:1036D000322001F0F1FF0021202001F08FFB0021BA
:1036E000212001F08BFB322001F0E6FF002100E0F9
:1036F00075E0302001F082FB40F20461312001F0DE
:103700007DFB40F20531322001F078FB00213520AD
:1037100001F074FB40F60941362001F06FFB4FF4D5
:103720000171372001F06AFB40F20131382001F0CD
:1037300065FB40F20771392001F060FB00213C205D
:1037400001F05CFB40F60A213D2001F057FB3220DE
:1037500001F0B2FF0021502001F050FBEF21512079
:1037600001F04CFB0021522001F048FB40F23F11D8
:10377000532001F043FB4FF42741602001F03EFB52
:103780000121612001F03AFB00216A2001F036FBA3
:103790000021802001F032FB0021812001F02EFB6E
:1037A0000021822001F02AFB0021832001F026FB6A
:1037B0000021842001F022FB0021852001F01EFB66
:1037C0001021902001F01AFB4FF4C061922001F00B
:1037D00015FB40F23311072001F010FB24E61248DC
:1037E000808849F2203188427ED10021084601F0CC
:1037F00005FB4FF48071012001F000FB4FF4E06104
:10380000022001F0FBFA41F23001032001F0F6FA48
:103810000021042001F0F2FA40F20221082001F018
:10382000EDFA0021092001E0A800002001F0E6FAED
:1038300000210A2001F0E2FA01210C2001F0DEFA59
:1038400000210D2001F0DAFA00210F2001F0D6FA54
:10385000322001F031FF40F20111072001F0CEFAD1
:10386000322001F029FF4FF48651102001F0C6FAF2
:103870000721112001F0C2FA4FF48871122001F0E3
:10388000BDFA4FF43061132001F0B8FA002129206D
:1038900001F0B4FA44F210012B2001F0AFFA00213C
:1038A000502001F0ABFAEF21512001F0A7FA0021DE
:1038B000522001F0A3FA40F23F11532001F09EFA8A
:1038C0004FF41C51602001F099FA0121612001F0B0
:1038D00095FA00216A2001F091FA0021802001F080
:1038E0008DFA0021812000E030E001F087FA00210C
:1038F000822001F083FA0021832001F07FFA002169
:10390000842001F07BFA0021852001F077FA102154
:10391000902001F073FA0021922001F06FFA01214A
:10392000932001F06BFA4FF48871952001F066FA4C
:103930000021972001F062FA0021982001F05EFA40
:1039400040F27311072001F059FA6DE5FE488088B6
:1039500049F2313188427DD141F21401E72001F072
:103960004DFA4FF48071012001F048FA4FF40071D4
:10397000022001F043FA41F23801032001F03EFA3F
:1039800040F20221082001F039FA0021092001F05B
:1039900035FA00210A2001F031FA00210C2001F053
:1039A0002DFA00210D2001F029FA00210F2001F04D
:1039B00025FA0021102001F021FA0721112001F041
:1039C0001DFA0021122001F019FA0021132001F044
:1039D00015FAC82001F070FE41F29061102001F04C
:1039E0000DFA40F22721112001F008FA322001F0EF
:1039F00063FE0C21122001F001FA322001F05CFE7E
:103A00004FF40061132001F0F9F91121292001F090
:103A1000F5F90B212B2001F0F1F9322001F04CFED9
:103A20000021202001F0EAF940F23F11212001F0AD
:103A3000E5F90021302001F0E1F94FF483713120E4
:103A400001F0DCF90021322001F0D8F94FF40171C6
:103A5000352000E064E001F0D1F941F20A6136203E
:103A600001F0CCF940F20771372001F0C7F94FF4AB
:103A70008371382001F0C2F940F20771392001F05A
:103A8000BDF940F202413C2001F0B8F940F60F4187
:103A90003D2001F0B3F90021502001F0AFF9EF21F2
:103AA000512001F0ABF90021522001F0A7F940F2BA
:103AB0003F11532001F0A2F94FF41C51602001F096
:103AC0009DF90121612001F099F900216A2001F09E
:103AD00095F90021802001F091F90021812001F069
:103AE0008DF90021822001F089F90021832001F065
:103AF00085F90021842001F081F90021852001F061
:103B00007DF91021902001F079F94FF4C0619220E5
:103B100001F074F940F23311072001F06FF983E4EA
:103B20008948808845F2084188427DD14FF48071F0
:103B3000012001F063F94FF4E061022001F05EF929
:103B400041F23001032001F059F90021042001F075
:103B500055F940F20721082001F050F90021092011
:103B600001F04CF900210A2001F048F900210C2055
:103B700001F044F900210D2001F040F900210F204F
:103B800001F03CF9142001F097FD41F2B0611020E2
:103B900001F034F90121112001F030F90121172041
:103BA00001F02CF94FF49C71122001F027F94FF429
:103BB0000061132001F022F90921292001F01EF9EA
:103BC00009212A2001F01AF90021A42001F016F998
:103BD0000021502001F012F9EF21512001F00EF9DF
:103BE0000021522001F00AF940F23F11532001F068
:103BF00005F94FF41C51602001F000F9012161200A
:103C000001F0FCF800216A2001F0F8F80021802082
:103C100001F0F4F80021812001F0F0F80021822069
:103C200001F0ECF8002100E024E0832001F0E6F848
:103C30000021842001F0E2F80021852001F0DEF867
:103C40001321902001F0DAF80021922001F0D6F83B
:103C50000321932001F0D2F84FF48871952001F0F0
:103C6000CDF840F27311072001F0C8F8322001F0BE
:103C700023FDB8E43448808841F2055188427DD163
:103C80000021072001F0BAF8322001F015FD4FF4B1
:103C90008E71122001F0B2F80121A42001F0AEF8DB
:103CA0000F21082001F0AAF808210A2001F0A6F847
:103CB00008210D2001F0A2F840F20771302001F038
:103CC0009DF80721312001F099F840F2036132207C
:103CD00001F094F84FF4E061332001F08FF840F2E6
:103CE0000221342001F08AF80221352001F086F803
:103CF00041F60F71362001F081F840F2077137204C
:103D000001F07CF80021382001F078F800213920FA
:103D100001F074F840F207713A2001F06FF80021C9
:103D20003B2001F06BF807213C2001F067F80021EF
:103D30003D2001F063F8322001F0BEFC0121072094
:103D400001F05CF8012101E0A8000020172001F03B
:103D500055F8322001F0B0FC4FF4BD51102001F0B5
:103D60004DF840F21721112001F048F84FF48F71FF
:103D7000122001F043F84FF4706100E098E0132046
:103D800001F03CF800212A2001F038F80A2129200E
:103D900001F034F84FF49F71122001F02FF8002148
:103DA000502001F02BF8EF21512001F027F80021DD
:103DB000522001F023F840F23F11532001F01EF889
:103DC0004FF41C51602001F019F80121612001F02D
:103DD00015F800216A2001F011F80021802001F07F
:103DE0000DF80021812001F009F80021822001F066
:103DF00005F80021832001F001F80021842000F063
:103E0000FDFF0021852000F0F9FF1321902000F034
:103E1000F5FF4FF44071922000F0F0FF0521932050
:103E200000F0ECFF0021952000F0E8FF0021972032
:103E300000F0E4FF0021982000F0E0FF4FF48071D3
:103E4000012000F0DBFF4FF4E061022000F0D6FF1C
:103E500041F23801032000F0D1FF0021042000F0DE
:103E6000CDFF00210C2000F0C9FF00210F2000F041
:103E7000C5FF0021202000F0C1FF0021212000F01B
:103E8000BDFF2121072000F0B9FF142001F014FC30
:103E90006121072000F0B2FF142001F00DFC40F278
:103EA0007311072000F0AAFF142001F005FC95E42F
:103EB000FE4880884BF2055188427CD1002108469B
:103EC00000F09CFF0021084600F098FF0021084602
:103ED00000F094FF0021084600F090FF0121A4208B
:103EE00000F08CFF142001F0E7FB4FF41C51602020
:103EF00000F084FF40F20221082000F07FFF4FF421
:103F00000571302000F07AFF43F21571312000F086
:103F100075FF40F20461322000F070FF40F6166138
:103F2000332000F06BFF42F21121342000F066FFD5
:103F30004FF4A851352000F061FF48F207513620B8
:103F400000F05CFF41F20741372000F057FF41F2DB
:103F50000341382000F052FF2021392000F04EFFAD
:103F60001A21902000F04AFF0021102000F046FFA7
:103F70000721112000F042FF0021122000F03EFF37
:103F80000021132000F03AFF142001F095FB4FF4BC
:103F9000E661102000F032FF40F23711112000F0EE
:103FA0002DFF142001F088FB4FF4DC71122000F08B
:103FB00025FF142000E085E001F07EFB4FF47061E6
:103FC000132000F01BFF80212A2000F017FF48215A
:103FD000292000F013FF142001F06EFB4FF48071D4
:103FE000012000F00BFF4FF4E061022000F006FF1B
:103FF00041F23801032000F001FF40F202210820C5
:1040000000F0FCFE00210A2000F0F8FE00210C2048
:1040100000F0F4FE00210D2000F0F0FE30210E2013
:1040200000F0ECFE0021502000F0E8FEEF215120CE
:1040300000F0E4FE0021522000F0E0FE40F23F11CB
:10404000532000F0DBFE4FF41C51602000F0D6FE40
:104050000121612000F0D2FE00216A2000F0CEFE96
:104060001121902000F0CAFE4FF4C061922000F0B0
:10407000C5FE40F20241932000F0C0FE02219420D0
:1040800000F0BCFE142001F017FB0121072000F016
:10409000B5FE142001F010FB6121072000F0AEFEF8
:1040A00040F27311072000F0A9FE0021202000F04B
:1040B000A5FE0021212000F0A1FE2221002000F019
:1040C0009DFE11E3794880884CF2055188427CD1ED
:1040D0000021084600F092FE0021084600F08EFE06
:1040E000142001F0E9FA0021084600F087FE0021C3
:1040F000084600F083FE0021084600F07FFE002104
:10410000084600F07BFE0121A42000F077FE142079
:1041100001F0D2FA4FF41C51602000F06FFE40F61F
:104120000601082000F06AFE40F20371302000F022
:1041300065FE0121312000F061FE0421322000F0F3
:104140005DFE4FF48171332000F058FE4FF4407152
:10415000342000F053FE40F20311352000F04EFEF3
:104160001F21362000F04AFE40F20371372000F094
:1041700045FE0121382000F041FE0421392000F0E5
:104180003DFE1521902000F039FE4FF48261102091
:1041900000F034FE40F24721112000F02FFE4FF4D2
:1041A000DE71122000F02AFE4FF46061132000F04F
:1041B00025FE782001F080FA4FF48071012000F094
:1041C0001DFE4FF40071022000E052E000F016FEE8
:1041D00041F23001032000F011FE08210A2000F016
:1041E0000DFE00210C2000F009FE20210E2000F021
:1041F00005FE00210F2000F001FE0021202000F02C
:10420000FDFD0021212000F0F9FD3D212A2000F0D4
:10421000F5FD142001F050FA2D21292000F0EEFDCB
:104220000021502000F0EAFD4DF2EF01512000F096
:10423000E5FD0021522000F0E1FD40F23F11532046
:1042400000F0DCFD0021612000F0D8FD00216A2093
:1042500000F0D4FD4FF44071922000F0CFFD052115
:10426000932000F0CBFD4FF48071072000F0C6FDD5
:104270003AE20E48808844F2315188427ED10121D1
:10428000002000F0BBFD0A2001F016FA41F228617F
:10429000102000F0B3FD0E21122000F0AFFD40F61B
:1042A0003921132000F0AAFD0A2001E0A800002017
:1042B00001F002FA4021112000F0A0FD502115204C
:1042C00000F09CFD0A2001F0F7F91E21122000F0F9
:1042D00095FD0A2001F0F0F94FF4B151102000F0E3
:1042E0008DFD42F63921132000F088FD0A2001F0EF
:1042F000E3F94FF48071012000F080FD4FF440712C
:10430000022000F07BFD41F23801032000F076FD31
:1043100040F20221082000F071FD08210A2000F07F
:104320006DFD0021302000F069FD40F20241312096
:1043300000F064FD4FF48371322000F05FFD40F225
:104340000351332000F05AFD4FF48271342000F005
:1043500055FD40F20131352000F050FD40F207716B
:10436000362000F04BFD40F20531372000F046FDCD
:104370004FF40271382000F041FD00E03EE040F6CD
:104380000B71392000F03AFD0221412000F036FD8A
:104390004FF41C51602000F031FD0121612000F03C
:1043A0002DFD4FF40471902000F028FD4FF485712D
:1043B000922000F023FD0421932000F01FFD4FF414
:1043C0008071A02000F01AFD0121072000F016FDE9
:1043D0002121072000F012FD2321072000F00EFD0F
:1043E0003321072000F00AFD40F23311072000F0CE
:1043F00005FD0021A02000F001FD75E1C048808886
:1044000044F2355188427CD13021152000F0F6FC71
:1044100010219A2000F0F2FC2021112000F0EEFC87
:1044200043F22841102000F0E9FC0221122000F0A4
:10443000E5FC41F23801132000F0E0FC282001F0F7
:104440003BF91221084600F0D9FC282001F034F98C
:1044500043F22041102000F0D1FC43F23801132038
:1044600000F0CCFC462001F027F90021302000F0BC
:10447000C5FC40F20241312000F0C0FC40F207319F
:10448000322000F0BBFC4FF44171332000F0B6FC49
:104490000421342000F0B2FC40F20141352000F04C
:1044A000ADFC40F20771362000F0A8FC40F2053167
:1044B000372000F0A3FC4FF4C261382000F09EFCCE
:1044C0004FF4C261392000F099FC4FF48071012053
:1044D00000F094FC4FF44071022000F08FFC41F298
:1044E0003001032000F08AFC40F60801082000F0AB
:1044F00085FC08210A2000F081FC4FF41C5160204B
:1045000000E033E000F07AFC0121612000F076FC4D
:104510004FF49F71902000F071FC4FF48071922055
:1045200000F06CFC4FF48071932000F067FC4FF4B6
:104530004051A02000F062FC1021A32000F05EFC9E
:104540000121072000F05AFC2121072000F056FC31
:104550002321072000F052FC3321072000F04EFCFD
:1045600040F23311072000F049FCBDE06448808828
:1045700041F663118842F8D1E22000F029FC1D20A9
:1045800000F01AFC022000F017FC042000F014FCDC
:10459000642001F0ADF8E02000F01AFC012000F0EA
:1045A0000BFC0A2001F088F8E02000F011FC032049
:1045B00000F002FC0C2001F07FF8012000F008FC64
:1045C0000A2001F079F8E62000F002FC2F2000F02C
:1045D000F3FBFF2000F0F0FBFF2000F0EDFBB0202C
:1045E00000F0F6FB202000F0E7FB002000F0E4FBE9
:1045F000032000F0E1FB40F21F3000F0DDFB012062
:1046000000F0DAFB40F2DF1000F0D6FB002000F0F3
:10461000D3FBB42000F0DCFB042000F0CDFB40F223
:104620001F4000F0C9FB002000F0C6FB2E2000F068
:10463000C3FB002000F0C0FB002000F0BDFB002009
:1046400000F0BAFB002000F0B7FBB62000F0C0FB82
:10465000022000F0B1FB4FF4037000F0ADFB00202E
:1046600000F0AAFB172000F0A7FB152000F0A4FB28
:10467000002000F0A1FB002000F09EFBF02000F0E5
:10468000A7FB032000F098FB292000F0A1FBD0201D
:1046900000F09EFB002000F08FFBBE2000F098FB96
:1046A000052000F089FBFE2000F086FB012000F0D1
:1046B00083FB002000F080FB002000F07DFB002049
:1046C00000F07AFBB82000F083FB032000F074FBBD
:1046D000012000F071FBBA2000F07AFB012000F00D
:1046E0006BFB642000F026F80020FCF7B5F90120F0
:1046F000044908604FF6FF70FCF778F921B000BD5F
:10470000A8000020BC82404208B503480088009001
:10471000BDF8000008BD00008000006C10B5044624
:10472000204600F055FB052000F0E2FFFFF7ECFF0C
:1047300010BD000070B52DED048B0446BE2000F0C6
:1047400047FB052000F038FB204601F02EF941EC34
:10475000190B9FED0E0B53EC102B01F039F941ECC6
:10476000180B01F0F5F885B2284600F025FB012072
:1047700000F022FBFF2000F01FFB002000F01CFBDC
:10478000002000F019FBBDEC048B70BD6666666608
:1047900066660440F0B5054600240027B7488079D6
:1047A00001280BD1B548808846F60401884205D01F
:1047B000B248808841F66311884208D1AF488079B9
:1047C000F0B9AE48808841F66311884218D1082DAF
:1047D00015D2DFE805F00406080A0C0E10120625B3
:1047E0000DE007250BE0042509E0052507E001257C
:1047F00005E0002503E0032501E0022500BF00BF1E
:104800009E48808849F24131884217D09B48808871
:1048100046F60401884211D09848808845F210314C
:1048200088420BD09548808845F21051884205D0C7
:104830009248808841F6631188427DD1082D1CD2B0
:10484000DFE805F00406090C0F12151800BF14E08C
:1048500044F0800411E044F040040EE044F0C00451
:104860000BE044F0200408E044F0600405E044F06C
:10487000A00402E044F0E00400BF00BF7F4880884D
:1048800045F21051884202D14FF4585700E03627C4
:104890007A48808845F2103188420DD07748808868
:1048A00045F21051884207D07448808841F6631160
:1048B000884201D044F008047048808846F604011C
:1048C000884201D144F002042146384600F096FAAD
:1048D0006A48808841F6631188421DD004F02000A8
:1048E00068B16648008865494988884214DA634897
:1048F0000688408861490880084646800CE05F4889
:1049000000885E494988884206DD5C480688408800
:104910005A490880084646805848808845F2105118
:10492000884254D15549488900F052FA002000F0DD
:1049300043FA5249498900E078E0491C88B200F006
:1049400047FA002000F038FA4C494989891C88B29E
:1049500000F03EFA49490988491EC1F30F2000F0D2
:104960002BFA46494989C91C88B200F031FA4349FB
:104970000978491EC8B200F01FFA4049888900F042
:1049800027FA002000F018FA3C498989491C88B2AE
:1049900000F01EFA002000F00FFA38498989891CBE
:1049A00088B200F015FA35494988491EC1F30F2035
:1049B00000F002FA31498989C91C88B200F008FA6E
:1049C0002E498978491EC8B200F0F6F955E02B4906
:1049D000488900F0FDF9002000F0EEF9002000F019
:1049E000EBF926490988491EC1F30F2000F0E4F9CC
:1049F00022490978491EC8B200F0DEF91F498889AA
:104A000000F0E6F9002000F0D7F9002000F0D4F91A
:104A10001A494988491EC1F30F2000F0CDF9174902
:104A20008978491EC8B200F0C7F926E0082D1CD2CB
:104A3000DFE805F004070A0D0F12151844F03004E2
:104A400013E044F0100410E044F020040DE000BF37
:104A50000BE044F0380408E044F0280405E044F09A
:104A6000180402E044F0080400BF00BF032744F428
:104A700080542146384600F0C1F9F0BDA80000205E
:104A800030B504460D466748808849F24131884276
:104A900005D06448808845F21031884214D16149BC
:104AA000488900F095F9201200F086F9E0B200F094
:104AB00083F95C49888900F08BF9281200F07CF9B1
:104AC000E8B200F079F9ABE05648808846F6040178
:104AD00088421DD153488079012804D1514800886B
:104AE000401E001B84B24F49488900F071F9201222
:104AF00000F062F9E0B200F05FF94A49888900F0FD
:104B000067F9281200F058F9E8B200F055F987E08B
:104B10004448808841F66311884247D141488079F2
:104B2000A8B940480088401E001B84B23D4948890E
:104B300000F04EF9002000F03FF9002000F03CF9B1
:104B4000201200F039F9E0B200F036F916E03549EC
:104B5000488900F03DF9201200F02EF9E0B200F093
:104B60002BF930490988491EC1F30F2000F024F9C0
:104B70002C490978491EC8B200F01EF929498889D4
:104B800000F026F9281200F017F9E8B200F014F945
:104B900024494988491EC1F30F2000F00DF921492D
:104BA0008978491EC8B200F007F939E01D488088AD
:104BB00045F21051884220D11A49488900F008F97D
:104BC000201200F0F9F817494989491C88B200F011
:104BD000FFF8E0B200F0F0F81249888900F0F8F828
:104BE000281200F0E9F80F498989491C88B200F0C1
:104BF000EFF8E8B200F0E0F812E00A488079012806
:104C000004D108480088401E001B84B20549488929
:104C1000214600F0F3F803498889294600F0EEF8B0
:104C200030BD0000A80000202DE9F84F80460E4658
:104C300017461C46B3462046E31704EB5373DB10BC
:104C400021464FEAE47C04EB5C7C4FEAEC0CA4EBDD
:104C5000CC0CBCF1000F02D04FF0010C01E04FF082
:104C6000000C6344224604EBD27C4FEA6C0C03FB3D
:104C70000CF3DBB20093A7F12000C7B2002556E089
:104C80000C2C07D107EB47002B4901EB800010F8F3
:104C9000059013E0102C05D1284800EB071010F800
:104CA00005900BE0182C07D107EBC700244901EB56
:104CB000800010F8059001E0BDE8F88F4FF0000A81
:104CC0002FE009F0800030B11E480288314640468E
:104CD000FBF7A2FF07E00A9828B91B480288314673
:104CE0004046FBF799FF4FEA49604FEA1069701C94
:104CF00086B216484088B04200DCDDE7A6EB0B0028
:104D0000A0420AD15E4608F101001FFA80F80F4860
:104D10000088404500DCCFE706E00AF1010000F022
:104D2000FF0ABAF1080FCCDB00BF681CC5B20098BF
:104D30008542A5DB00BFBFE7D65B00084A600008DC
:104D40003A6600082000002022000020A800002071
:104D50002DE9F84704460D4690469946DDE9096776
:104D600004F0FF0A08EB04001FFA80F809EB0500C5
:104D70001FFA80F916E0444502DB5446A81985B2B3
:104D80004D4500DB14E0002000903A783346294678
:104D90002046FFF749FF304606EBD07104EB610176
:104DA0008CB27F1C38787E2802DC38782028E2DA42
:104DB00000BFBDE8F887000001B5BDF80000009015
:104DC000BDF800000149088008BD00008000006CAB
:104DD00001B5BDF800000090BDF800000149088051
:104DE00008BD00007E00006C02480089024908806E
:104DF00070470000A80000207E00006C034A10806D
:104E00004FF0D842A2F88010704700007E00006C7E
:104E100000BFFEE77047000070B5002100230F229D
:104E2000C4781CB3174C246804F4E064C4F5E0644F
:104E3000C4F30721C1F10404E3B20A4144789C4061
:104E4000E1B28478144021430C07210E0E4C057802
:104E50006155047804F01F050124AC4005786D11FC
:104E6000AD0005F1E025C5F8004109E0047804F043
:104E70001F050124AC40054D0678761145F8264003
:104E800070BD00000CED00E000E400E080E100E017
:104E900002490143024A1160704700000000FA0510
:104EA0000CED00E07047000029B1064A1268024389
:104EB000044B1A6004E0034A12688243014B1A60F3
:104EC000704700003038024029B1064A1268024398
:104ED000044B1A6004E0034A12688243014B1A60D3
:104EE000704700003838024029B1064A1268024370
:104EF000044B1A6004E0034A12688243014B1A60B3
:104F00007047000044380240F0B500210022002420
:104F1000022500260223324F3F6807F00C0121B121
:104F2000042905D0082937D105E02E4F076036E067
:104F30002D4F076033E02A4F3F1F3F68C7F380566D
:104F4000274F3F1F3F6807F03F036EB1264FB7FB67
:104F5000F3F7DFF88CC0ACF1040CDCF800C0CCF344
:104F6000881C07FB0CF40CE01E4FB7FBF3F7DFF8CF
:104F700070C0ACF1040CDCF800C0CCF3881C07FB5B
:104F80000CF4174F3F1F3F68C7F301477F1C7D009C
:104F9000B4FBF5F7076002E0124F076000BF00BFE7
:104FA0000F4F3F6807F0F0010909104F7A5C07685E
:104FB000D74047600A4F3F6807F4E051890A0B4F1A
:104FC0007A5C4768D7408760054F3F6807F46041C7
:104FD000490B064F7A5C4768D740C760F0BD0000B8
:104FE000083802400024F40000127A00000000207B
:104FF000704700000CB50020019000903448006814
:1050000040F480303249086000BF3148006800F445
:10501000003000900198401C0190009818B9019848
:10502000B0F5A04FF1D12A48006800F4003010B16B
:105030000120009001E0002000900098012846D156
:1050400023484030006840F08050214940310860DA
:105050002048006840F440401E4908601C48083061
:1050600000681B49083108600846006840F40040A9
:1050700008600846006840F4A05008601648091F00
:105080000860081F006840F08070091F086000BFBA
:105090000F48006800F000700028F9D040F2057059
:1050A0000E4908600A480830006820F003000849EB
:1050B000083108600846006840F00200086000BF40
:1050C00003480830006800F00C000828F8D10CBD37
:1050D000003802400070004008544007003C024085
:1050E000042808D14FF0E021096941F004014FF094
:1050F000E022116107E04FF0E021096921F004018D
:105100004FF0E022116170477047000010B515485C
:10511000006840F47000134908601348006840F0CC
:1051200001001149086000200F49083108600E484D
:1051300000680E4908400C4908600D48091D0860C8
:10514000081F006820F48020091F0860002006491D
:105150000C310860FFF74EFF4FF0006001498039C5
:10516000086010BD88ED00E000380240FFFFF6FE49
:105170001030002410B50121034800F00AF8012185
:10518000014800F003F810BD000C0040CA43028241
:10519000704730B50246002000230024158A05EA36
:1051A0000103958905EA010413B10CB1012000E067
:1051B000002030BD10B5002440F22551084800F011
:1051C0007BF858B1064800F031F9C4B2204600F02F
:1051D00035F940F22551024800F053F810BD0000A7
:1051E0000044004010B540F225511F4800F064F81B
:1051F00010B31D4800F01AF9C4B21C4890F85802C8
:10520000D0B91A48B0F85A02B0F5957F0DDC1748AE
:10521000B0F85A1200F5967044541448B0F85A0287
:10522000401C1249A1F85A0206E000200F49A1F8DB
:105230005A02012081F8580240F224410A4800F045
:105240003BF878B1084800F0F1F8C4B20748B0F86C
:105250005A0238B1054890F8580218B9012003499C
:1052600081F8580210BD000000140140C200002067
:1052700001F40072B2F5007F00D100BFCA43028082
:10528000704710B50022002340F66A14A14200D1F5
:1052900000BF0A1201249440A3B2DC43048010BD75
:1052A00021B1828942F40052828104E082894DF664
:1052B000FF731A408281704770B5024600240023B4
:1052C0000025002040F66A16B14200D100BFC1F3AC
:1052D000421501F01F03012606FA03F3012D02D146
:1052E0009689334006E0022D02D1168A334001E050
:1052F000968A33400C12012606FA04F416883440CC
:1053000013B10CB1012000E0002070BDF0B50346E0
:10531000002400260025002040F66A17B94200D17B
:1053200000BF1846C1F3421401F01F06012707FA17
:1053300006F5012C01D10C3004E0022C01D1103013
:1053400000E014301AB107682F43076002E00768D5
:10535000AF430760F0BD00002DE9FF4705460E464C
:105360000024A14600BFA046B08900B100BF2C8A2E
:1053700024F44054F08804432C82AC8941F20C6040
:105380008443B08831890843718908430443AC8160
:10539000AC8A24F44074B0890443AC826846FFF7B9
:1053A000B3FD2048854202D01F48854202D1DDF876
:1053B0000C9001E0DDF80890A88900F4004040B1AD
:1053C00009EBC90000EB091031684900B0FBF1F7A7
:1053D00007E009EBC90000EB091031688900B0FB58
:1053E000F1F76420B7FBF0F004012009642101FB10
:1053F0001078A88900F4004040B1322000EBC800CA
:10540000B0FBF1F000F00700044308E0322000EBAD
:1054100008106421B0FBF1F000F00F0004432C8170
:10542000BDE8FF8700100140001401400146888854
:10543000C0F30800704700BFFEE700002DE9FC4103
:1054400080467248006808B9BDE8FC817048016870
:105450000068401C6E4A10606E4800F801806E487B
:10546000006830B1012859D0022874D0032854D1E3
:10547000BCE06848007855280CD065480068401E9C
:105480006349086008466349491C0268481EFAF7E8
:10549000B1FFD9E75E4800680B283ED30A215D487A
:1054A00000F0DCF807465B48807AB8420CD05848D8
:1054B0000068401E5649086008465649491C026863
:1054C000481EFAF797FFBFE7524880785149C978DC
:1054D00040EA0120ADF800004E4800794D49497975
:1054E00040EA0120ADF802004A4880794949C9796B
:1054F00040EA0120ADF804004648007A4549497A5F
:1055000040EA0120ADF80600424948780422694685
:10551000FBF7ACF800203E4908606BE03C480068AF
:10552000022861D93B48407803280CD038480068ED
:10553000401E3749086008463649491C0268481E23
:10554000FAF758FF80E733488078401D30490968F2
:10555000884201D978E748E02D480068401E2D496F
:10556000095C2B480068801E2A4A105C41EA00252D
:1055700027480088801E81B2104600F053F8064686
:10558000B5420CD022480068401E214908600846F8
:105590002049491C0268481EFAF72CFF54E71D48B1
:1055A00080784510002414E0042000EB44001949E1
:1055B000085C032101EB4401164A515C40EA0120DA
:1055C00000B2164909682144154A22F81100601CEE
:1055D00084B2AC42E8DB2946104800680B4A1268E6
:1055E000904700200A49086004E000BF00200849F5
:1055F000086000BF00BF06480068B0F5807F02D198
:1056000000200349086000BF1EE700008C00002056
:1056100098000020200300209C000020A000002013
:105620002004002070B503460C46FF25FF2600220B
:1056300000BF00BF09E0985C80EA05010548405CB6
:1056400080EA06050448465C521CA242F3DB46EAA7
:10565000052070BDC0730008C074000810B5024674
:105660000B460020002103E0545C0444E0B2491CD6
:105670009942F9D310BD00BF7047000010B5044631
:105680006FF00400FFF72CFDE11704EB5171C1F33B
:10569000C701074A11701046007800EB4001C1EBCA
:1056A000C0104FF6FF7101EAC0000249088010BD2A
:1056B000100000201200002070B504464FF407705F
:1056C00094FBF0F0C6B24FF4077094FBF0F100FBCE
:1056D000114085B205E04FF4077000F02FF8701EFE
:1056E000C6B2002EF7D115B1284600F027F870BDDC
:1056F0000146114A12784A434FF0E0235A610022D2
:105700009A611A46126942F001021A6100BF4FF015
:10571000E022106900F001021AB100F48032002A80
:10572000F5D04FF0E022126922F001024FF0E023A1
:105730001A6100229A617047100000200146114A48
:1057400012884A434FF0E0235A6100229A611A46B8
:10575000126942F001021A6100BF4FF0E0221069A5
:1057600000F001021AB100F48032002AF5D04FF0A7
:10577000E022126922F001024FF0E0231A610022B8
:105780009A6170471200002000BF054A128802F09B
:105790004002002AF9D0C2B2014B9A807047000043
:1057A0000010014010B51C48007800F0010058B30B
:1057B0001A48007898B900211948FBF701F800BF92
:1057C0001748FBF708F80028FAD11548FBF70DF841
:1057D000C0F5F840134908600120104908700F48CF
:1057E0000078022816D14FF4F8400D49091D0860D1
:1057F00001460B48FAF7FDFF01210948FAF7E0FFDF
:1058000000200649087005E000210846FFF738F936
:10581000FFF7EAFA10BD00007000002078000020B9
:10582000286402407400002086B04FF4A060FFF7A7
:105830002FFBA820FFF722FF4FF4E13000F02EF8F5
:10584000FBF7AAFA4FF478401249088000240020A0
:105850000390049005901BE022460FA103A8FAF7DD
:1058600019FD4FF6FF70FBF7C1F84FF47840094976
:10587000088003A818210B46D222CDE90010282168
:105880001E20FFF765FA4FF47A70FFF715FF641CCE
:10589000E2E70000200000202564000010B588B079
:1058A000044601210846FFF7FFFA01211020FFF707
:1058B0001BFB072209212448FBF773F807220A2162
:1058C0002148FBF76EF84FF4C060069002208DF877
:1058D0001C008DF81D0000208DF81E0001208DF8A1
:1058E0001F0006A91848FBF714F802940020ADF831
:1058F0000C00ADF80E00ADF81000ADF814000C204F
:10590000ADF8120002A91148FFF726FD01210F484A
:10591000FFF7C6FC40210D48FFF7AAFC012240F228
:1059200025510A48FFF7F2FC25208DF804000320DA
:105930008DF805008DF8060001208DF8070001A8FC
:10594000FFF76AFA08B010BD0000024000100140E5
:105950004FEA1153A3F58063D3F11E03A8BFD3F11F
:10596000200C08DB4FF0004242EAC12252EA5052BA
:1059700032FA03F0704709420BD4102BC4BF002049
:10598000704703F5787CBCF1FF3F05D04FF0FF3046
:1059900070474FF00000704770B500F0C3F800BFCB
:1059A0004992248000207047F0E7B0FA80F310FAA3
:1059B00003F10AD0C3F11D0303F580634FEA4150A0
:1059C0004FEA035202EBD12170474FF000007047BD
:1059D000DFF848C170B51CEA111E1EBF1CEA131582
:1059E0009EEA0C0F95EA0C0F00F06F8081EA030429
:1059F00023EA4C134EEAD47E21EA4C1141F4801183
:105A000043F48013AE44A1FB024CA0FB0365AEF14E
:105A10007F7E361955EB0C05A1FB034C4CF10003BE
:105A2000A0FB021C16EB0C06654153F10003094272
:105A300018BF46F0010613F4007F0BD14FEA033183
:105A40004FEA0530340341EA155140EA16506FF031
:105A500003020AE04FEAC3214FEAC520F40241EAFB
:105A6000555140EA56506FF0020202EB2E4201EB14
:105A7000025585EACE710AD05FEA440C18BF24F0C3
:105A8000004450F1000041F1000120EAD47040F2DE
:105A9000FE7C624500D270BDA84214BF4FF0804426
:105AA0004FF04044002E08BF0024BEF1806FA8BF15
:105AB000A1F1C041BDE8704080F282804FF000004B
:105AC00001F1C04101F0004170479EEA0C0F0CEA61
:105AD000131518BF95EA0C0F06D04FF0000081EAAD
